:1000000012C02AC029C028C027C026C025C024C0CD
:1000100023C022C021C020C01FC01EC01DC028C0D8
:100020003CC01AC019C011241FBECFEDCDBF10E0D7
:10003000A0E6B0E0E4EFF1E002C005900D92A23638
:10004000B107D9F720E0A2E6B0E001C01D92A436C6
:10005000B207E1F784D0CCC0D3CF8DB188628DB91F
:1000600080EF8EB9BD98C598BF9AC79A6F9A0895C8
:100070001F920F920FB60F9211248F93109263006C
:10008000B799FECF80EF8EB98DB180658DB98F9114
:100090000F900FBE0F901F9018951F920F920FB6E2
:1000A0000F9211242F938F939F939FB180916300A0
:1000B000823021F138F4882381F0813099F5BD98A0
:1000C00082E02EC0843021F108F1853059F5BD98C9
:1000D000C5988EE08EB984E023C080916000292FFE
:1000E0002695281721F08DB18F7A8DB91BC0BD9A46
:1000F0008EE08EB990FF08C083E012C08FB180936C
:100100006200BD9A8EE08EB981E00AC0C59A07C030
:1001100090FF03C01092630005C0C59ABD9A85E0A8
:1001200080936300769A9F918F912F910F900FBECD
:100130000F901F901895009741F00197EFECF7E0B2
:100140003197F1F700C00000F6CF0895009731F025
:10015000019722E02A95F1F700C0F8CF08958AB3FD
:1001600083608ABB8FEF81BB8BB38C7F8BBB12BA52
:1001700087B3887F87BB88B3876088BB8AE090E0BD
:10018000E5DF86B38095909160008770890F80933A
:10019000600063DF8AE090E0D9DF7894109262001B
:1001A000D99812BA809162008F70823089F030F451
:1001B000882361F0813089F4919A0FC0853051F025
:1001C000863051F0843049F4929A07C0909A05C065
:1001D000D99A03C0939A01C0949A8091620084FFD7
:1001E00002C0D89A01C0D8988AE090E0A4DFD8CFA6
:0401F000F894FFCFB1
:0201F4001000F9
:00000001FF
