:1000000012C02AC029C028C027C026C025C024C0CD
:1000100023C022C021C020C01FC01EC01DC028C0D8
:100020003CC01AC019C011241FBECFEDCDBF10E0D7
:10003000A0E6B0E0E2E1F2E002C005900D92A23647
:10004000B107D9F720E0A2E6B0E001C01D92A436C6
:10005000B207E1F785D0DBC0D3CF8DB188628DB90F
:1000600080EF8EB9BD98C598BF9AC79A6F9A0895C8
:100070001F920F920FB60F9211248F93109263006C
:10008000B799FECF80EF8EB98DB180658DB98F9114
:100090000F900FBE0F901F9018951F920F920FB6E2
:1000A0000F9211242F938F939F939FB180916300A0
:1000B000823081F168F48823B1F0813031F1769A91
:1000C0009F918F912F910F900FBE0F901F901895B9
:1000D000843051F130F1853091F7BD98C5988EE0AC
:1000E0008EB984E014C080916000292F26952817CE
:1000F00021F08DB18F7A8DB9E2CFBD9A8EE08EB9A5
:1001000083E090FD04C081E002C0BD9882E080934E
:100110006300D5CF8FB180936200BD9A8EE08EB917
:10012000F2CFC59A85E0F3CF90FF03C01092630031
:10013000C6CFC59ABD9AF6CF009709F408950197E6
:10014000EFECF7E03197F1F700C00000F5CF009732
:1001500009F40895019722E02A95F1F700C0F7CF3E
:100160008AB383608ABB8FEF81BBBC9A8BB38C7FD1
:100170008BBB12BA87B3887F87BB88B3876088BB85
:100180008AE090E0E4DF86B390916000809587700C
:10019000890F8093600061DF8AE090E0D8DF789477
:1001A000109262008BB38C7F8BBB88B38F7A88BB35
:1001B00012BAE0916200EF70EA3078F4F0E0EE51AC
:1001C000FF4F099409C011C012C013C014C015C05C
:1001D00016C017C018C019C0D89A8091620084FD5B
:1001E000C49A8AE090E0A8DFDDCF909AF6CF919A8A
:1001F000F4CF929AF2CF939AF0CF949AEECF959A49
:10020000ECCF969AEACFC69AE8CFD99AE6CFF8947F
:02021000FFCF1E
:020212001000DA
:00000001FF
