:100000001AC032C031C030C02FC02EC02DC02CC08D
:100010002BC02AC029C028C027C026C025C030C098
:1000200042C022C021C0CFC0D0C0D1C0D2C0D3C036
:10003000D4C0D5C0D6C011241FBECFEDCDBF10E0B7
:10004000A0E6B0E0E0EFF1E002C005900D92A2362C
:10005000B107D9F710E0A2E6B0E001C01D92A436C6
:10006000B107E1F782D0C2C0CBCF8DB188628DB924
:1000700080EF8EB9BD98C598BF9AC79A6F9A0895B8
:100080001F920F920FB60F9211248F93B799FECF44
:1000900080EF8EB98DB180658DB98F910F900FBEB5
:1000A0000F901F9018951F920F920FB60F92112468
:1000B0002F938F939F939FB180916300823021F1A2
:1000C00038F4882381F0813099F5BD9882E02EC004
:1000D000843021F108F1853059F5BD98C5988EE03E
:1000E0008EB984E023C080916000292F26952817BF
:1000F00021F08DB18F7A8DB91BC0BD9A8EE08EB97B
:1001000090FF08C083E012C08FB180936200BD9A57
:100110008EE08EB981E00AC0C59A07C090FF03C087
:100120001092630005C0C59ABD9A85E08093630074
:10013000769A9F918F912F910F900FBE0F901F90E5
:100140001895009741F00197EFECF7E03197F1F740
:1001500000C00000F6CF0895009731F0019722E02B
:100160002A95F1F700C0F8CF08958AB383608ABB5F
:100170008FEF81BB8BB38C7F8BBB12BA87B3807F31
:1001800087BB88B38F6088BB8AE090E0E5DF86B3E9
:100190008095909160008F70890F8093600065DF7B
:1001A0008AE090E0D9DF78948BB38C7F8BBB12BA56
:1001B000E09162008E2F90E08830910598F4FC0168
:1001C000ED5EFF4F0994909A0DC0919A0BC0D99A99
:1001D00009C0D89A07C0929A05C0939A03C0949A0E
:1001E00001C0959A8AE090E0ACDFDECFF894FFCFB3
:0201F0002000ED
:00000001FF
