:100000001AC032C031C030C02FC02EC02DC02CC08D
:100010002BC02AC029C028C027C026C025C071C057
:1000200083C022C021C055C056C057C058C059C057
:100030005AC05BC05CC011241FBECFEDCDBF10E025
:10004000A0E6B0E0E2EFF1E002C005900D92A2362A
:10005000B107D9F710E0A2E6B0E001C01D92A436C6
:10006000B107E1F70DD0C3C0CBCF8DB188628DB998
:1000700080EF8EB9BD98C598BF9AC79A6F9A0895B8
:100080008AB383608ABB8FEF81BB8BB38C7F8BBBC2
:1000900012BA87B3807F87BB88B38F6088BB86B373
:1000A0008095909160008F70890F80936000DDDFF4
:1000B000789420ED37E08BB38C7F8BBB12BA8091A4
:1000C0006300E82FF0E0E830F10590F4ED5EFF4FBB
:1000D0000994909A0DC0919A0BC0D99A09C0D89AE8
:1000E00007C0929A05C0939A03C0949A01C0959A4A
:1000F0008AE090E00197F9013197F1F70097D9F282
:10010000F9CF1F920F920FB60F9211248F93B799C8
:10011000FECF80EF8EB98DB180658DB98F910F9034
:100120000FBE0F901F9018951F920F920FB60F924F
:1001300011242F933F934F938F939F934FB18091AF
:100140006200823029F1833028F4882351F0813015
:10015000C9F51BC0843031F1843010F1853091F540
:100160002AC020916000842F869590E030E08217AD
:10017000930721F08DB18F7A8DB924C0BD9A8EE09E
:100180008EB940FF0BC083E01BC0BD9882E018C051
:100190008FB180936300BD9A8EE08EB981E010C06C
:1001A000C59A07C040FF03C0109262000BC0C59AF9
:1001B000BD9A85E005C0BD98C5988EE08EB984E0F3
:1001C00080936200769A9F918F914F913F912F91EA
:1001D0000F900FBE0F901F90189520ED37E004C0D0
:1001E0000197F9013197F1F70097D1F70895F89445
:0201F000FFCF3F
:0201F2002000EB
:00000001FF
